:03000000020255A4
:03000B00020040B0
:1000400090024A30900221322091147536FF7537A4
:10005000FFD537FDD536F72091EED29102010A2067
:1000600092147536FF7537FFD537FDD536F72092D8
:10007000D7D29202013A2093147536FF7537FFD517
:1000800037FDD536F72093C0D2930201A9209414EE
:100090007536FF7537FFD537FDD536F72094A9D2D1
:1000A000940201D61580E580B400037580FF790FB6
:1000B000EA9311F10ABA0A7A7A0019190BEB931133
:1000C000F1BB0A6E7B00190CEC9311F1BC06637C4A
:1000D00000EC9311F119190DED9311F1BD0A537D47
:1000E00000ED9311F1190EEE9311F1BE06442101BA
:1000F00022C0E0E924C031FF510FD0E031FF511D93
:1001000022C2B07538FFD538FD227902EF9311F184
:100110000FBF0B1E7F007901E5309311F10530E52B
:1001200030B40B0E7530007900E5319311F10531D3
:100130002132758C3C758AB0321F7902BF000221D2
:10014000930FBF0A611FBF00137F0A790115301595
:1001500030E5309311F179020530215CBF0D0A7F43
:1001600007EF9311F10FBF00C9BF090B7F08EF9391
:1001700011F17F0EBF00BB1FEF9311F10FBF00B253
:100180007F0AEF9311F1153015307901E5309311A5
:10019000F121327F0B790115301530E5309311F1E3
:1001A0007902053021411F21457906E5329311F18D
:1001B0000532E532B40B467532007905E53393110B
:1001C000F10533E533B40B357533007904E5349329
:1001D00011F105342132790615321532E5329311C9
:1001E000F10532E532B4001575320AE5329311F1AA
:1001F000153315337905E5339311F1213221327529
:10020000A0FFC2B5D2B6C2B700D2B720A7F1223143
:10021000FFF5A0C2B5C2B6D2B700C2B72231FFF512
:10022000A0D2B5C2B6D2B700C2B7224841494E41AA
:100230004E2056532048454245493030303A303000
:1002400030202030303A30303A30303132333435AB
:10025000363738393078007A007B007C007D007EAC
:10026000007F0175300175310175320175330175FB
:1002700034017580FF7401510F7438510F740C51A3
:100280000F7414510F7480510F90022BA800E89343
:10029000511D08B80FF874C0510FE893511D08B8EC
:1002A0001FF8758901758C3C758AB0D2AFD2A9D27E
:0302B0008C41B1CD
:00000001FF
